:100000000C9456000C9475000C9475000C947500BB
:100010000C9475000C9475000C9475000C9475008C
:100020000C9475000C9475000C9475000C9475007C
:100030000C9475000C9475000C9475000C9475006C
:100040000C9475000C9475000C9475000C9475005C
:100050000C9475000C9475000C9475000C9475004C
:100060000C9475000C9475000C9475000C9475003C
:100070000C9475000C9475000C9475000C9475002C
:100080000C9475000C9475000C947500D700DE007C
:100090004A0100013601700114017701A501B50183
:1000A000AA01B501B501B501B501B00111241FBE0A
:1000B000CFEFD0E4DEBFCDBF11E0A0E0B1E0E8E8D3
:1000C000F3E000E00BBF02C007900D92AE30B10725
:1000D000D9F711E0AEE0B1E001C01D92A031B10747
:1000E000E1F70E94A0000C94C2010C940000CF9391
:1000F000DF9300D01F92CDB7DEB789837B836A83FD
:1001000089818A3031F48A819B81BC018DE00E9413
:10011000770080EC90E0FC018081882F90E0807275
:1001200099270097B1F386EC90E02981FC012083A8
:1001300080E090E00F900F900F90DF91CF910895A5
:10014000CF93DF93CDB7DEB781E290E0FC01108260
:1001500082E290E02FEFFC01208384E290E02FEF19
:10016000FC01208385E290E0FC01108210920F01D7
:1001700010920E010E94BD00FDCFCF93DF93CDB74B
:10018000DEB780910E0190910F01CC01A0E0B0E0AC
:1001900040E050E027E030E0841B950B281739073A
:1001A00008F4B9C08A5B9F4FFC010C94B90181E04F
:1001B00090E090930F0180930E01B2C080E290E036
:1001C000FC018081803839F487E090E090930F0142
:1001D00080930E0114C080E290E0FC0180818430A5
:1001E00039F483E090E090930F0180930E0107C0F3
:1001F00081E090E090930F0180930E0191C090C038
:1002000080E290E0FC018081882339F486E090E070
:1002100090930F0180930E0183C083E090E0909350
:100220000F0180930E017CC080E290E0FC01808190
:10023000823039F482E090E090930F0180930E01B8
:1002400014C080E290E0FC018081882339F486E0CC
:1002500090E090930F0180930E0107C084E090E03E
:1002600090930F0180930E015BC05AC080E290E032
:10027000FC018081882339F481E090E090930F01A4
:1002800080930E014DC084E090E090930F01809325
:100290000E0146C080E290E0FC018081882339F4A1
:1002A00085E090E090930F0180930E0113C080E2EF
:1002B00090E0FC018081803839F487E090E09093F1
:1002C0000F0180930E0106C082E090E090930F0131
:1002D00080930E0185E290E021E0FC01208320C0A4
:1002E00081E090E090930F0180930E0119C080E2AD
:1002F00090E0FC018081882339F481E090E09093C4
:100300000F0180930E010CC087E090E090930F01E5
:1003100080930E0105C010920F0110920E01000093
:1003200080910E0190910F01CC01A0E0B0E040E07F
:1003300050E027E030E0841B950B28173907A8F020
:10034000825B9F4FFC010C94B90185E290E0FC01B7
:1003500010820CC085E290E021E0FC01208306C001
:1003600085E290E0FC01108201C00000DF91CF9196
:100370000895EE0FFF1F0024001C0BBE0790F6919E
:08038000E02D0994F894FFCF71
:0E0388000000000200000000770000000000EE
:00000001FF
