:100000000C9446000C9465000C9465000C946500FB
:100010000C9465000C9465000C9465000C946500CC
:100020000C9465000C9465000C9465000C946500BC
:100030000C9465000C9465000C9465000C946500AC
:100040000C9465000C9465000C9465000C9465009C
:100050000C9465000C9465000C9465000C9465008C
:100060000C9465000C9465000C9465000C9465007C
:100070000C9465000C9465000C9465000C9465006C
:100080000C9465000C9465000C94650011241FBE4F
:10009000CFEFD0E4DEBFCDBF11E0A0E0B1E0E0EBF8
:1000A000F3E000E00BBF02C007900D92AE30B10745
:1000B000D9F711E0AEE0B1E001C01D92A031B10767
:1000C000E1F70E9490000C94D6010C940000CF93AD
:1000D000DF9300D01F92CDB7DEB789837B836A831D
:1000E00089818A3031F48A819B81BC018DE00E9434
:1000F000670080EC90E0FC018081882F90E08072A6
:1001000099270097B1F386EC90E02981FC012083C8
:1001100080E090E00F900F900F90DF91CF910895C5
:10012000CF93DF93CDB7DEB781E290E0FC01108280
:1001300082E290E02FEFFC01208387E290E02FEF36
:10014000FC01208388E290E027E0FC0120831092EC
:100150000F0110920E010E94AE00FDCFCF93DF93EE
:10016000CDB7DEB780910E0190910F0182309105DD
:1001700009F455C08330910530F4009769F081305F
:10018000910589F0BCC08330910509F46CC08430BE
:10019000910509F48CC0B3C081E090E090930F0109
:1001A00080930E01B1C080E290E0FC018081882F35
:1001B00090E081709927009739F082E090E0909369
:1001C0000F0180930E012AC080E290E0FC01808143
:1001D000882F90E082709927009739F083E090E0B3
:1001E00090930F0180930E0119C080E290E0FC0112
:1001F0008081882F90E0837099278330910539F4AE
:1002000084E090E090930F0180930E0107C081E09D
:1002100090E090930F0180930E0176C075C080E24C
:1002200090E0FC018081882F90E0817099270097F1
:1002300039F082E090E090930F0180930E0112C09C
:1002400080E290E0FC018081882F90E08370992704
:100250008330910539F484E090E090930F0180930E
:100260000E0152C051C080E290E0FC018081882FD5
:1002700090E082709927009739F083E090E09093A6
:100280000F0180930E0112C080E290E0FC0180819A
:10029000882F90E0837099278330910539F484E0AA
:1002A00090E090930F0180930E012EC02DC080E24C
:1002B00090E0FC018081882F90E08095909583707C
:1002C00099278130910569F080E290E0FC018081FE
:1002D000882F90E0809590958370992782309105C2
:1002E00039F484E090E090930F0180930E010CC0EC
:1002F00081E090E090930F0180930E0105C0109271
:100300000F0110920E01000080910E0190910F01DB
:1003100082309105B9F08330910538F4009709F4E3
:1003200041C08130910541F03EC08330910501F11B
:100330008430910591F137C088E290E027E0FC011C
:10034000208331C088E290E0FC018081893030F068
:1003500088E290E029E0FC01208325C088E290E05B
:1003600028E230E0F90120812F5FFC0120831BC0CF
:1003700088E290E0FC018081882329F488E290E003
:10038000FC01108210C088E290E028E230E0F90120
:1003900020812150FC01208306C088E290E0FC010E
:1003A000108201C00000DF91CF910895F894FFCF33
:0E03B0000000000200000000670000000000D6
:00000001FF
